:100000000C946B000C9488000C9488000C9488006D
:100010000C9488000C9488000C9488000C94880040
:100020000C9488000C9488000C9488000C94880030
:100030000C9488000C9488000C9488000C94880020
:100040000C9488000C9488000C9488000C94880010
:100050000C94880007634236B79BD8A71A396856B4
:1000600018AEBAAB558C1D3CB7CC5763BD6DEDFDDA
:10007000753EF6177231BF000000803F0800000097
:10008000BE922449123EABAAAA2ABECDCCCC4C3E8D
:1000900000000080BEABAAAAAA3E00000000BF007C
:1000A0000000803F0000000000084178D3BB438778
:1000B000D1133D190E3CC3BD4282AD2B3E68EC828C
:1000C00076BED98FE1A93E4C80EFFFBE01C4FF7F11
:1000D0003F000000000011241FBECFE5D8E0DEBFC6
:1000E000CDBF13E0A0E6B0E0E2E1FFE102C0059081
:1000F0000D92A838B107D9F726E0A8E8B3E001C00F
:100100001D92A33AB207E1F70E94D7060C94870F1D
:100110000C9400009C01615090E00CC0D901A90F23
:10012000B11D8C91F901E60FF11D40814C93808344
:100130009F5F6150961790F308954F925F926F9270
:100140007F92AF92BF92CF92DF92EF92FF920F9386
:100150001F93CF93DF93EA0128013901C12CD12CE1
:10016000760115C05E01AC0CBD1C2AE030E040E019
:1001700050E00E944B0F605DF5016083622F732F8A
:10018000842F952FFFEFCF1ADF0AEF0AFF0A6115C0
:1001900071058105910531F70AC0FE01EC0DFD1DC9
:1001A00080E380832FEFC21AD20AE20AF20AC41453
:1001B000D504E604F70488F36C2DCE010E948A0072
:1001C000CC0DDD1D18828C2DDF91CF911F910F91E9
:1001D000FF90EF90DF90CF90BF90AF907F906F90A7
:1001E0005F904F9008954F925F926F927F928F929F
:1001F0009F92BF92CF92DF92EF92FF920F931F9345
:10020000CF93DF936B017C014A01B22E0E94630CF5
:100210002B013C010E94920C9B01AC01C701B6016D
:100220000E947F0B6B017C0100E010E09801A401AB
:10023000C301B2010E949D00BB2039F1C82FD0E05C
:10024000F401EC0FFD1F8EE280834B2C512C612CAE
:10025000712CC301B2010E94920C9B01AC0160E0C1
:1002600070E080E291E40E94B60D9B01AC01C701F1
:10027000B6010E94490D2196C80DD91D0E94630C3C
:1002800093018201AE010E949D00DF91CF911F91E9
:100290000F91FF90EF90DF90CF90BF909F908F9045
:1002A0007F906F905F904F900895AC0160E070E098
:1002B000CB0104C06F5F7F4F8F4F9F4FFA01E60F56
:1002C000F71F20812111F6CF08954F925F926F9210
:1002D0007F928F929F92AF92BF92CF92DF92EF92D6
:1002E000FF920F931F93CF93DF938C010E945501D0
:1002F0002B013C01C0E0C12CD12C760160E070E004
:10030000CB0129C0F801EC0FF11DD081DE3261F480
:1003100073016201C818D908EA08FB0821E0C21A73
:10032000D108E108F10816C020E030E040E251E4D5
:100330000E94490D4B015C016D2F70E06053710903
:10034000072E000C880B990B0E94940CA5019401B8
:100350000E94800BCF5F8C2E912CA12CB12C841489
:100360009504A604B70470F208C020E030E040E233
:1003700051E40E94F10B750164014601570121E02F
:10038000821A9108A108B108CD28CE28CF2869F794
:10039000DF91CF911F910F91FF90EF90DF90CF9061
:1003A000BF90AF909F908F907F906F905F904F9095
:1003B00008950F9305E020E630E040E060EA81E038
:1003C0000E94C9070F9108950F9305E09C0140E03A
:1003D00060EA81E00E94A3070F910895CF93DF9315
:1003E0001F92CDB7DEB79E012F5F3F4F40E064EA1A
:1003F00081E00E94310789818F3F11F480E001C0C4
:1004000081E00F90DF91CF91089585E690E00E9402
:10041000F60A88E00E94EB0A8EE993E00E94F60A51
:100420008AE790E00E94F60A08950F931F93CF93F6
:10043000C82F282F40E064EA81E00E9472076C2FE9
:1004400070E080E090E000E010E098014EE953E0B9
:100450000E949D000E940502CF911F910F91089567
:100460000F931F93CF93DF931F92CDB7DEB781E039
:1004700089839E012F5F3F4F40E064EA0E9431076D
:100480000E94EE01882361F0698170E080E090E0D5
:1004900000E010E098014EE953E00E949D00898140
:1004A0000F90DF91CF911F910F910895FF920F93BD
:1004B0001F93CF93DF93F82E10E02EC0912F990F4A
:1004C000892F880F880F880F891B80939903812FAC
:1004D00090E0EC01CC0FDD1F880F991F880F991F4A
:1004E000880F991FC80FD91FC855DC4F4091990339
:1004F0000AE09E0166EA81E00E94A307BE018EE940
:1005000093E00E945E0B882331F087EA90E00E941E
:10051000F60A81E004C01F5F1F1580F280E0DF91C2
:10052000CF911F910F91FF90089582E993E00E946F
:10053000E4018CEC90E00E94F60A88E00E94EB0A4D
:1005400088E893E00E940F0B68E873E082E993E08B
:100550000E945E0B811105C084EE90E00E94F60AB5
:10056000E8CF0895CF9384E091E00E94F60A81E3FA
:1005700091E00E94F60A86E491E00E94F60A8BE57B
:1005800091E00E94F60A8AE791E00E94F60A89E962
:1005900091E00E94F60A8AE790E00E94F60A81EA5A
:1005A00091E00E94F60A88E00E94EB0A0E94EF0A9E
:1005B000C82F8DE00E94EB0A8C2FCF910895FF92F7
:1005C0000F931F93CF93DF9300D000D0CDB7DEB74A
:1005D0000E943002F82E0E94EE0181114CC085EB82
:1005E00091E00E94F60A4FC0912F990F892F880F32
:1005F000880F880F891B8093990380919903875FE7
:1006000080939803809198038F5F80939703409124
:10061000990309E02EE933E066EA81E00E94A3072E
:100620008EEE91E00E94F60A88E00E94EB0A8EE9C5
:1006300093E00E94F60A4091970304E09E012F5F29
:100640003F4F66EA81E00E94A3078BE392E00E949D
:10065000F60A88E00E94EB0A69817A818B819C818D
:1006600022E04AE953E00E94F3008AE993E00E9405
:10067000F60A1F5F01C010E01F1508F4B5CF8AE726
:1006800090E00E94F60A0F900F900F900F90DF916C
:10069000CF911F910F91FF9008950F931F93CF93C8
:1006A000DF9300D000D0CDB7DEB70E943002182F04
:1006B000883329F489EC91E00E94F60A62C08CED3F
:1006C00091E00E94F60A88E00E94EB0A8EE993E02E
:1006D0000E940F0B8EE993E00E945501693071056D
:1006E0008105910529F084EF91E00E94F60AE7CF99
:1006F000812F0E9456028111E2CF912F990F892FED
:10070000880F880F880F891B809399038091990324
:10071000875F80939803809198038F5F80939703FE
:100720004091990309E02EE933E066EA81E00E94F6
:10073000C9074091980320E066EA81E00E947207B1
:1007400089E292E00E94F60A88E00E94EB0A8AE9B8
:1007500093E00E940F0B8AE993E00E946501698390
:100760007A838B839C834091970304E09E012F5FE3
:100770003F4F66EA81E00E94C90781E0810F0E9435
:1007800015020F900F900F900F90DF91CF911F9156
:100790000F9108950F93CF93DF9300D000D0CDB782
:1007A000DEB719821A821B821C8285E492E00E94C5
:1007B000F60A88E00E94EB0A8AE993E00E940F0B98
:1007C0008AE993E00E94650169837A838B839C8325
:1007D00020E03CE34CE156E40E94EC0B882354F407
:1007E00004E09E012F5F3F4F40E062EA81E00E94FB
:1007F000C90704C080E692E00E94F60A0F900F90AD
:100800000F900F90DF91CF910F9108950F93CF9399
:10081000DF9300D000D0CDB7DEB704E09E012F5F9C
:100820003F4F40E062EA81E00E94A30769817A813C
:100830008B819C8122E04AE953E00E94F3008AE91F
:1008400093E00E94F60A8AE790E00E94F60A0F9071
:100850000F900F900F90DF91CF910F9108950E940C
:10086000D9010E9495020E94B202853329F48AE7D9
:1008700092E00E94F60A0895813319F40E944D0314
:10088000F2CF823319F40E94DF02EDCF833319F4E3
:100890000E94CA03E8CF843319F40E940604E3CF10
:1008A00088E992E00E94F60ADECF0E94E30A0E94E5
:1008B00089080E94D40A80E00E94850A81E00E9493
:1008C00024070E946D090E9412070E94FC0641E065
:1008D00064E081E00E94830908950E94690980E034
:1008E0000E9471099C01AEEEB2E00E946D0F0E9461
:1008F000920C20E030ED4FEB54E40E94F10B0E948B
:10090000630C60936D0670936E0680936F069093F0
:10091000700660E080E00E94F2088BEB92E00E949B
:10092000DF0860916D0670916E0680916F06909160
:1009300070060E94140983E492E00E94DF0869E0D7
:1009400080E00E94F20883E40E949C0842EC52E09E
:1009500060E081E00E9409090E9404088333E1F706
:100960000E9469090895EF92FF920F931F93CF930E
:10097000DF9300D000D0CDB7DEB77C010E943002FB
:10098000182F0E94EE01892BB1F53BC01092DA05B9
:100990008091DA05875F8093D9058091D9058F5FB3
:1009A0008093D8054091DA0509E02FED35E066EA3D
:1009B00081E00E94A307B7018FED95E00E945E0BD6
:1009C000811123C04091D80504E09E012F5F3F4F65
:1009D00066EA81E00E94A30769817A818B819C810C
:1009E00022E030E04BED55E00E94F30069817A810E
:1009F0008B819C810DC01111C9CF60E070E0CB01EB
:100A000007C060E070E0CB0103C060E070E0CB01A4
:100A10000F900F900F900F90DF91CF911F910F913A
:100A2000FF90EF9008958F929F92AF92BF92CF92D6
:100A3000DF92EF92FF920F931F93CF93DF93CDB787
:100A4000DEB72E970FB6F894DEBF0FBECDBF83E0A2
:100A50008093E9050E94690982ED92E00E94DF0817
:100A600082E00E9402078823D9F30E9469098EED73
:100A700092E00E94DF080E94040880938E060E9484
:100A8000690910E012C085EA90E00E94DF08E12FBA
:100A9000F0E0E556F94F80918E068083133020F404
:100AA0000E94040880938E061F5F143060F340E0BC
:100AB00064E081E00E94040A80E50E94D90A8093E4
:100AC000E90580E090E0DC0103C00196A11DB11DA5
:100AD000803221EA920727E0A207B105B0F380E552
:100AE0000E94D90A8093E90510E01CC040E064E050
:100AF00081E00E94040AE12FF0E0E556F94F808181
:100B00000E94D90A8093E90580E090E0DC0103C0EF
:100B10000196A11DB11D883E23E09207A105B105F4
:100B2000B8F31F5F143010F380E090E0DC0103C0E5
:100B30000196A11DB11D803221EA920727E0A2078C
:100B4000B105B0F340E064E081E00E94040A8EE168
:100B50000E94D90A8093E9050E9469098091E905FC
:100B6000813009F0AEC08FEE92E00E94DF0860E0B5
:100B700081E00E94F20810E0C12CD12C76012BC03C
:100B80000E94040880938E06E12FF0E0E957F94FA8
:100B900080830E949C081430E9F020E030E040E2BD
:100BA00051E4C701B6010E94490D6B017C016091BF
:100BB0008E0670E080E090E00E94940CA701960100
:100BC0000E94800B20E030E040E452E40E947F0B62
:100BD0006B017C011F5F173098F220E030E048EC99
:100BE00052E4C701B6010E94F10B4B015C0104E025
:100BF0009E012F5F3F4F40E062EA81E00E94A30721
:100C000029813A814B815C81C501B4010E94440D68
:100C1000181634F50E94690980E093E00E94DF080D
:100C200087E50E94D90A68EB7BE080E090E00E94B3
:100C3000DC060E94690960C0E12EF12C81E00E946F
:100C4000D90AE5E0F0E0EC0FFD1FEE0DFF1D8083FB
:100C50006AE070E080E090E00E94DC061F5F01C067
:100C600010E0193048F3CE0105960E94B3049B01B1
:100C7000AC01C501B4010E94440D18167CF40E9419
:100C8000690980E193E00E94DF0868EB7BE080E087
:100C900090E00E94DC060E9469092EC00E9469094A
:100CA0008EE193E00E94DF080E94180768EB7BE06A
:100CB00080E090E00E94DC060E941E070E94690905
:100CC0001BC081110DC088E293E00E94DF0868EB31
:100CD0007BE080E090E00E94DC060E9469090CC085
:100CE00086E393E00E94DF0868EB7BE080E090E021
:100CF0000E94DC060E9469092E960FB6F894DEBFAA
:100D00000FBECDBFDF91CF911F910F91FF90EF905C
:100D1000DF90CF90BF90AF909F908F9008950E94EA
:100D2000690983E493E00E94DF0842E553E060E054
:100D300081E00E9409090E94040880938E06813395
:100D400019F0823321F008C00E94130508950E9413
:100D500069090E946D0408950E94690982E693E082
:100D60000E94DF0808950E942E0B8823F9F088E77F
:100D700096E00E940F0B68E776E08FE693E00E9412
:100D80005E0B882321F00E942F0480E0089568E71D
:100D900076E085E793E00E945E0B882319F00E94BD
:100DA0008F0604C08AE793E00E94F60A08950E9425
:100DB00055040E94B306FDCF9B01AC0160E472E4D0
:100DC0008FE090E00E943B0F605F734281099109C0
:100DD00021E335E140E050E00E944B0F80E090E0DD
:100DE000DC0104C000000196A11DB11D821793070C
:100DF000A407B507B8F3089540E062E081E00E94DF
:100E000083090895883060F446B321E030E0B901E9
:100E100002C0660F771F8A95E2F7CB0184230895FD
:100E20008FEF089541E061E081E00E948309089519
:100E300041E061E081E00E94040A089540E061E041
:100E400081E00E94040A0895813039F480E00E9414
:100E5000850A882321F082E0089581E0089580E0EA
:100E600008950F931F93CF93DF93813039F5890154
:100E7000D42FC62F80E00E94910A811121C06C2FCF
:100E80000E94A80A81111EC06D2F0E94A80A81111C
:100E90001BC00E949C0A811119C06C2F61600E94C6
:100EA000A80A811115C0B8010E94B40A811112C0AC
:100EB0000E94C80A882381F082E00FC081E00DC043
:100EC00082E00BC082E009C082E007C082E005C07A
:100ED00082E003C082E001C080E0DF91CF911F91EA
:100EE0000F9108951F93CF93DF938130E9F4122F70
:100EF000D42FC62F80E00E94910A811117C06C2F59
:100F00000E94A80A811114C06D2F0E94A80A8111A5
:100F100011C0612F0E94A80A81110EC00E94C80A48
:100F2000882361F082E00BC081E009C082E007C045
:100F300082E005C082E003C082E001C080E0DF9172
:100F4000CF911F910895DF92EF92FF920F931F931D
:100F5000CF93DF93D82E162FD42F7901C0E00CC089
:100F600097012C0F311D4C2F4D0F612F8D2D0E949D
:100F70003107811105C0CF5FC01790F380E001C039
:100F800082E0DF91CF911F910F91FF90EF90DF9062
:100F90000895DF92EF92FF920F931F93CF93DF9309
:100FA000D82E162FD42F7901C0E013C0F701EC0F13
:100FB000F11D20814C2F4D0F612F8D2D0E94720746
:100FC00081110BC00E94340B0E94340B0E94340B21
:100FD000CF5FC01758F380E001C082E0DF91CF916E
:100FE0001F910F91FF90EF90DF9008958B3051F09B
:100FF0008C3021F08A3021F48EE2089583E2089546
:10100000805D089580E3089580E031C022E030E003
:10101000082E02C0220F331F0A94E2F72ABB209544
:101020002BBB94E021C029B3492F50E030E0092EBA
:1010300002C0359527950A94E2F720FD14C029B324
:1010400030E0042E02C0359527950A94E2F720FF80
:10105000F6CF44505109942F990F490F840F8F5F99
:101060000E94F60708959F5F9830E8F28F5F833003
:1010700068F2CACFCF93C82F85B38F7D85BB85B368
:101080008F7B85BB61E070E080E090E00E94DC0631
:1010900085B3806885BB61E070E080E090E00E94ED
:1010A000DC0682B38F709C2F907F892B82BB61E01E
:1010B00070E080E090E00E94DC0685B38F7785BB0E
:1010C00061E070E080E090E00E94DC0685B380681B
:1010D00085BB61E070E080E090E00E94DC0622B316
:1010E00030E1C39FC0011124922F9F70892B82BBD6
:1010F00061E070E080E090E00E94DC0685B38F77CD
:1011000085BB61E070E080E090E00E94DC06CF915A
:10111000089584B3806E84BB81B3806F81BB82E00D
:101120000E943A0888E20E943A088CE00E943A083D
:1011300081E00E943A080895CF93C82F85B380625A
:1011400085BB85B38F7B85BB85B3806885BB82B348
:101150008F709C2F907F892B82BB61E070E080E0D4
:1011600090E00E94DC0685B38F7785BB61E070E07C
:1011700080E090E00E94DC0685B3806885BB61E07A
:1011800070E080E090E00E94DC0622B330E1C39F73
:10119000C0011124922F9F70892B82BB61E070E007
:1011A00080E090E00E94DC0685B38F7785BB61E02C
:1011B00070E080E090E00E94DC06CF9108950F93EC
:1011C0001F93CF938C01C0E003C00E949C08CF5FA7
:1011D000F801EC0FF11D80818111F7CFCF911F91A4
:1011E0000F910895813031F070F0823031F083300A
:1011F00039F00AC090E4960F07C090E1960F04C042
:1012000090E5960F01C0962F892F80680E943A08BA
:101210000895CF93DF93EA010E94F208CE010E9465
:10122000DF08DF91CF9108951F93CF93DF93CDB760
:10123000DEB764970FB6F894DEBF0FBECDBFFE01D8
:10124000319624E1DF011D922A95E9F761157105B8
:101250008105910521F420E3298311E015C010E0F8
:1012600013C02AE030E040E050E00E944B0FE1E084
:10127000F0E0EC0FFD1FE10FF11D605D60831F5F6B
:10128000622F732F842F952F6115710581059105AC
:1012900041F711500CC0E1E0F0E0EC0FFD1FE10F51
:1012A000F11D17FDFA9580810E949C0811501123B1
:1012B00094F76AE070E080E090E00E94DC066496BB
:1012C0000FB6F894DEBF0FBECDBFDF91CF911F9157
:1012D000089581E00E943A08089517B883E886B916
:1012E0000895877097B1907E97B997B1892B87B988
:1012F00086B1806486B9349BFECF86B1806186B9A1
:1013000084B195B10895843008F078C0683008F051
:1013100077C0813011F130F08230D1F1833009F49F
:1013200052C070C041110DC02AB381E090E002C0EC
:10133000880F991F6A95E2F7809582238ABB81E026
:1013400008952AB381E090E002C0880F991F6A9542
:10135000E2F7822B8ABB81E0089541110DC027B3CB
:1013600081E090E002C0880F991F6A95E2F78095AE
:10137000822387BB81E0089527B381E090E002C01B
:10138000880F991F6A95E2F7822B87BB81E0089549
:1013900041110DC024B381E090E002C0880F991F75
:1013A0006A95E2F78095822384BB81E0089524B397
:1013B00081E090E002C0880F991F6A95E2F7822BC6
:1013C00084BB81E0089541110DC021B381E090E01C
:1013D00002C0880F991F6A95E2F78095822381BB2E
:1013E00081E0089521B381E090E002C0880F991F49
:1013F0006A95E2F7822B81BB81E008958FEF089513
:101400008FEF089581E00895843008F078C0683047
:1014100008F077C0813011F130F08230D1F18330A3
:1014200009F452C070C0413061F42BB381E090E008
:1014300002C0880F991F6A95E2F7822B8BBB81E06F
:1014400008952BB381E090E002C0880F991F6A9540
:10145000E2F7809582238BBB81E00895413061F4EF
:1014600028B381E090E002C0880F991F6A95E2F7E7
:10147000822B88BB81E0089528B381E090E002C010
:10148000880F991F6A95E2F78095822388BB81E0D7
:101490000895413061F425B381E090E002C0880FE7
:1014A000991F6A95E2F7822B85BB81E0089525B3E9
:1014B00081E090E002C0880F991F6A95E2F780955D
:1014C000822385BB81E00895413061F422B381E03D
:1014D00090E002C0880F991F6A95E2F7822B82BBC9
:1014E00081E0089522B381E090E002C0880F991F47
:1014F0006A95E2F78095822382BB81E008958FEFA1
:1015000008958FEF089581E00895811108C083E068
:1015100081B987E080B984E086BF80E0089582E0E9
:101520000895811107C084EA86BF06B607FEFDCF85
:1015300080E0089582E00895811108C086B7806A2E
:1015400086BF06B607FEFDCF80E0089582E00895CD
:10155000811108C063B984E886BF06B607FEFDCFD7
:1015600080E0089582E008956115710569F08111A8
:101570000DC086B7806886BF06B607FEFDCF83B173
:10158000FB01808380E0089581E0089582E0089562
:10159000811108C084E986BF96B7892F807194FDB8
:1015A000FBCF089582E0089580EA87BB85E58DB979
:1015B00008958FB97699FECF779BFECF8EB1806864
:1015C0008EB98FB1089583E389B910BC88E18AB9D7
:1015D00086E880BD08955D9BFECF8CB908955F9B22
:1015E000FECF8CB19BB190689BB908950F931F9368
:1015F000CF938C01C0E003C00E94EB0ACF5FF801DB
:10160000EC0FF11D80818D3011F08111F5CF8DE04F
:101610000E94EB0A80E0CF911F910F910895EF9205
:10162000FF920F931F93CF937C01C0E087010C0FB3
:10163000111D0E94EF0AF80180838D3009F4108299
:10164000CF5FF701EC0FF11D319780818111EECF53
:10165000CF911F910F91FF90EF9008955F9902C075
:1016600080E0089581E00895CF93DF9300D000D00B
:10167000CDB7DEB71A82198215C01C820BC01B823F
:1016800003C08B818F5F8B838B818230D0F38C8101
:101690008F5F8C838C81803290F389819A8101964F
:1016A0009A83898389819A818436910530F30F90DA
:1016B0000F900F900F90DF91CF910895DC0140E0E3
:1016C0000AC0FB01E20FF31F2081921719F04F5F50
:1016D00080E00EC04F5F242F30E0FD01E20FF31FCA
:1016E0009081992321F09D3061F781E001C081E074
:1016F000FB01E40FF11D9081911180E00895505895
:10170000BB27AA270E94970B0C940A0D0E94FC0C81
:1017100038F00E94030D20F039F49F3F19F426F4AD
:101720000C94F90C0EF4E095E7FB0C94F30CE92F04
:101730000E941B0D58F3BA176207730784079507B9
:1017400020F079F4A6F50C943D0D0EF4E0950B2EE7
:10175000BA2FA02D0B01B90190010C01CA01A00103
:101760001124FF27591B99F0593F50F4503E68F15E
:101770001A16F040A22F232F342F4427585FF3CF9F
:10178000469537952795A795F0405395C9F77EF470
:101790001F16BA0B620B730B840BBAF09150A1F0B9
:1017A000FF0FBB1F661F771F881FC2F70EC0BA0F3F
:1017B000621F731F841F48F4879577956795B795C7
:1017C000F7959E3F08F0B0CF9395880F08F09927C2
:1017D000EE0F9795879508950E94CF0C08F481E04D
:1017E00008950E94050C0C940A0D0E94030D58F0F8
:1017F0000E94FC0C40F029F45F3F29F00C94F30C9C
:1018000051110C943E0D0C94F90C0E941B0D68F3C1
:101810009923B1F3552391F3951B550BBB27AA27A9
:1018200062177307840738F09F5F5F4F220F331FE3
:10183000441FAA1FA9F335D00E2E3AF0E0E832D0AB
:1018400091505040E695001CCAF72BD0FE2F29D0AE
:10185000660F771F881FBB1F261737074807AB0780
:10186000B0E809F0BB0B802DBF01FF2793585F4FF5
:101870003AF09E3F510578F00C94F30C0C943E0D19
:101880005F3FE4F3983ED4F3869577956795B795D7
:10189000F7959F5FC9F7880F911D9695879597F9E2
:1018A0000895E1E0660F771F881FBB1F621773075B
:1018B0008407BA0720F0621B730B840BBA0BEE1F70
:1018C00088F7E09508950E94230D88F09F5798F0BF
:1018D000B92F9927B751B0F0E1F0660F771F881F35
:1018E000991F1AF0BA95C9F714C0B13091F00E944F
:1018F0003D0DB1E008950C943D0D672F782F88279A
:10190000B85F39F0B93FCCF3869577956795B39575
:10191000D9F73EF490958095709561957F4F8F4FE4
:101920009F4F0895E89409C097FB3EF490958095E9
:10193000709561957F4F8F4F9F4F9923A9F0F92F95
:1019400096E9BB279395F695879577956795B79513
:10195000F111F8CFFAF4BB0F11F460FF1BC06F5FF9
:101960007F4F8F4F9F4F16C0882311F096E911C00B
:10197000772321F09EE8872F762F05C0662371F02C
:1019800096E8862F70E060E02AF09A95660F771F40
:10199000881FDAF7880F9695879597F90895990F1C
:1019A0000008550FAA0BE0E8FEEF16161706E80729
:1019B000F907C0F012161306E407F50798F0621B4A
:1019C000730B840B950B39F40A2661F0232B242B1F
:1019D000252B21F408950A2609F4A140A6958FEF3E
:1019E000811D811D089597F99F6780E870E060E090
:1019F00008959FEF80EC089500240A9416161706A8
:101A000018060906089500240A94121613061406EF
:101A100005060895092E0394000C11F4882352F052
:101A2000BB0F40F4BF2B11F460FF04C06F5F7F4F0A
:101A30008F4F9F4F089557FD9058440F551F59F0F1
:101A40005F3F71F04795880F97FB991F61F09F3FAB
:101A500079F087950895121613061406551FF2CFD4
:101A60004695F1DF08C0161617061806991FF1CF24
:101A700086957105610508940895E894BB2766274B
:101A80007727CB0197F908950E94CF0C08F48FEFC8
:101A900008950E945C0D0C940A0D0E94FC0C38F015
:101AA0000E94030D20F0952311F00C94F30C0C947C
:101AB000F90C11240C943E0D0E941B0D70F3959FA0
:101AC000C1F3950F50E0551F629FF001729FBB2735
:101AD000F00DB11D639FAA27F00DB11DAA1F649FD1
:101AE0006627B00DA11D661F829F2227B00DA11D84
:101AF000621F739FB00DA11D621F839FA00D611D0A
:101B0000221F749F3327A00D611D231F849F600D2A
:101B1000211D822F762F6A2F11249F5750409AF053
:101B2000F1F088234AF0EE0FFF1FBB1F661F771FDF
:101B3000881F91505040A9F79E3F510580F00C94AA
:101B4000F30C0C943E0D5F3FE4F3983ED4F386957E
:101B500077956795B795F795E7959F5FC1F7FE2B4A
:101B6000880F911D9695879597F90895FA01EE0FC4
:101B7000FF1F309621053105A1F16115710561F452
:101B80008038BFE39B0749F168949038810561F084
:101B90008038BFEF9B0741F099234AF5FF3FE105ED
:101BA0003105210519F1E8940894E795D901AA2394
:101BB00029F4AB2FBE2FF85FD0F310C0FF5F70F495
:101BC000A695E0F7F73950F019F0FF3A38F49F770F
:101BD0009F930DD00F9007FC9058089546F00C94F9
:101BE000F90C60E070E080E89FE308954FE79F778D
:101BF0005F934F933F932F930E94B10E2F913F918C
:101C00004F915F910E94490D0C940E0E29F416F02D
:101C10000C94F30C0C943D0D0C94F90C0E94230DC4
:101C2000A8F39638A0F707F80F92E8942BE33AEA66
:101C300048EB5FE70E945F0D0F920F920F924DB736
:101C40005EB70F920E94F90EE4E5F0E00E94400EAC
:101C50004F915F91EF91FF91E595EE1FFF1F49F0C6
:101C6000FE57E0684427EE0F441FFA95E1F74195CF
:101C7000550B0E94730E0F9007FE0C94670E08958B
:101C8000DF93CF931F930F93FF92EF92DF927B012D
:101C90008C01689406C0DA2EEF010E945C0DFE01F3
:101CA000E894A5912591359145915591A6F3EF01C1
:101CB0000E94970BFE019701A801DA9469F7DF9063
:101CC000EF90FF900F911F91CF91DF9108959B01AD
:101CD000AC0160E070E080E89FE30C94F10B0C94A1
:101CE000F30C0C942D0F0E94230DD8F39923C9F304
:101CF000940F511DA3F39150504094F059F0882354
:101D000032F0660F771F881F91505040C1F79E3FF9
:101D100051052CF7880F911D9695879597F9089591
:101D20005F3FACF0983E9CF0BB2786957795679512
:101D3000B79508F4B1609395C1F7BB0F58F711F44C
:101D400060FFE8CF6F5F7F4F8F4F9F4FE3CF0C94C3
:101D50003E0D16F00C942D0F0C94F90C68940C9415
:101D6000F30C0E94230DA8F39923C1F3AEF3DF9384
:101D7000CF931F930F93FF92C92FDD2788232AF05B
:101D80002197660F771F881FDAF720E030E040E8E0
:101D90005FEB9FE3883920F0803E38F021968F7703
:101DA0000E94800BECE7F0E004C00E94800BE9EA9F
:101DB000F0E00E94400E8B01BE01EC01FB2E6F573C
:101DC00071097595771F880B990B0E94940C28E177
:101DD00032E741E35FE30E945C0DAF2D9801AE0155
:101DE000FF900F911F91CF91DF910E94970B0C9460
:101DF0000A0DFA01DC01AA0FBB1F9B01AC01BF5702
:101E000028F4222733274427507820C0B75190F474
:101E1000AB2F0024469537952795011CA395D2F347
:101E2000002071F0220F331F441FB395DAF30ED058
:101E30000C947F0B61307105A0E88A07B94630F435
:101E40009B01AC016627772788279078309621F090
:101E5000208331834283538308959F3F31F0915013
:101E600020F4879577956795B795880F911D96957E
:101E7000879597F90895DB018F939F930E947C0FBC
:101E8000BF91AF91A29F800D911DA39F900DB29F16
:101E9000900D11240895A1E21A2EAA1BBB1BFD016F
:101EA0000DC0AA1FBB1FEE1FFF1FA217B307E40739
:101EB000F50720F0A21BB30BE40BF50B661F771F91
:101EC000881F991F1A9469F7609570958095909571
:101ED0009B01AC01BD01CF010895A29FB001B39F4A
:101EE000C001A39F700D811D1124911DB29F700D23
:101EF000811D1124911D08950E946D0FA59F900DC5
:101F0000B49F900DA49F800D911D11240895F89405
:021F1000FFCF01
:101F120031323334004143434F554E5453204156DE
:101F2200414C4941424C453A20002A2A2A2A2A2A6F
:101F32002A2A2A2A2A2A2A2A2A2A2A2A2A2A2A2AFF
:101F42002A2A2A2A2A2A2A2A2A2A2A2A2A2A2A2AEF
:101F52002A2A2A2A2A2A005B494E464F5D20494EE8
:101F620056414C49442050414E20414C5245414437
:101F720059204558495354532E2E2E00454E544550
:101F82005220594F555220534543524554205049EF
:101F92004E3A20005B494E464F5D20494E56414C19
:101FA20049442050494E2054727920416761696E3C
:101FB2002E2E2E002A2A2A2A2A2A2A2A57656C63BA
:101FC2006F6D6520746F2041544D205365727669A0
:101FD20063652A2A2A2A2A2A2A2A2A2A2A2A2A2AEB
:101FE20000312E2053657420437573746F6D6572D2
:101FF200204461746100322E20476574204375735A
:10200200746F6D6572204461746100332E205365D4
:1020120074204D6178696D756D2042616C616E63EB
:1020220065204163636F756E7400342E20476574BA
:10203200204D6178696D756D2042616C616E6365DA
:10204200204163636F756E7400352E20517569747B
:1020520000456E74657220796F75722063686F69CE
:1020620063653A20005B494E464F5D204D454D4F1A
:10207200525920454D505459005B494E464F5D2000
:102082004D454D4F52592046554C4C00454E5445F6
:102092005220594F555220534543524554205041E6
:1020A2004E3A20005B494E464F5D20494E56414C08
:1020B20049442050414E204D555354204245203929
:1020C200204348415241435445525320547279208F
:1020D200416761696E2E2E2E00454E54455220599D
:1020E2004F555220414D4F554E542042414C414E86
:1020F20043453A2000454E544552204D4158204216
:10210200414C414E4345204E554D4245523A2000E6
:102112005B494E464F5D20494E56414C4944204250
:10212200414C414E43452E2E2E005448414E4B20E9
:102132005520464F52205553494E472041544D2079
:102142004D414348494E45005B494E464F5D20494B
:102152004E56414C49442043484F4943452054720E
:102162007920416761696E2E2E2E0054656D703D97
:1021720020005052455353203320544F2045584994
:102182005400566572696679206361726400506C0E
:102192006561736520656E7465722050494E004515
:1021A2006E7465722074686520616D6F756E74005F
:1021B20061626F7665206D61782076616C7565006D
:1021C200756E2053756666696369656E7400737512
:1021D200636365656465640077726F6E67506173EF
:1021E20073776F726400696E76616C6964206461F2
:1021F200746100312D20496E7365727420436172DF
:102202006400322D20446973706C61792054656DCD
:10221200700057726F6E6720456E747279210041AB
:10222200444D494E00555345520077726F6E6720F8
:08223200636F6D6D616E6400C5
:00000001FF
