S00C0000434152442E73726563FE
S11300000C942A000C9447000C9447000C9447006D
S11300100C9447000C9447000C9447000C94470040
S11300200C9447000C9447000C9447000C94470030
S11300300C9447000C9447000C9447000C94470020
S11300400C9447000C9447000C9447000C94470010
S11300500C94470011241FBECFE5D8E0DEBFCDBF0E
S113006010E0A0E6B0E0ECE3F7E002C005900D92EA
S1130070A63EB107D9F721E0A6EEB0E001C01D927B
S1130080A231B207E1F70E94BA010C949C030C94CC
S113009000000E946C03811106C00E941C03882387
S11300A019F082E0089581E008950F931F93CF9390
S11300B0DF931092110105E027EE30E042E060EAA0
S11300C081E00E943E020AE02CEE30E048E060EA63
S11300D081E00E943E0282E00E9417038093110196
S11300E08035C9F50BC00C2F10E081E40E94170382
S11300F0F801EE5FFE4F8083CF5F01C0C0E0C430E3
S113010090F320E011C0822F90E0FC01E951FF4FF1
S11301103081FC01EE5FFE4F8081381721F080E0D2
S11301200E94170318C02F5F243068F381E00E94F7
S1130130170310E00EC0C12FD0E0FE01E451FF4FC1
S113014080810E941703CE5FDE4F8883873519F0C4
S11301501F5F193080F380E0DF91CF911F910F91E1
S11301600895AC0190E008C0FA01E90FF11D208167
S113017020532A3028F49F5F9430B0F380E0089530
S113018081E008950F93CF93DF9382E091E00E9482
S1130190500380910201813481F4809103018434FD
S11301A061F4809104018D3441F480910501893416
S11301B021F4809106018E3429F080E690E00E94BB
S11301C037035BC0C2E0D1E019868EE690E00E945E
S11301D03703CE010E94500389858D3021F08EE8CB
S11301E090E00E94370380910B018D3059F71092F3
S11301F00B010AE022E031E048E060EA81E00E947D
S113020064022CEE30E048E060EA81E00E943E02A5
S1130210C2E0D1E01C8284E990E00E943703CE0161
S11302200E9450038C818D3029F4CE010E94B100CC
S1130230882321F08EE890E00E9437038091060124
S11302408D3031F782E091E00E94B1008111E0CF5E
S113025084EB90E00E9437031092060105E022E04F
S113026031E042E060EA81E00E94640227EE30E07F
S113027042E060EA81E00E943E0280E0DF91CF919B
S11302800F9108950E944900813011F40E94C20028
S11302900E944900823011F40E94550008950F9382
S11302A01F93CF93C0E01FC00C2F10E09801295179
S11302B03F4F45E14C0F60EA81E00E94CC0180E0B1
S11302C090E0DC0103C00196A11DB11D803523EC33
S11302D09207A105B105B8F3F801E951FF4F8081F8
S11302E08F3F41F5CF5FC930F8F2C0E01FC00C2F3B
S11302F010E0980129513F4F42E04C0F60EA81E041
S11303000E94CC0180E090E0DC0103C00196A11DB5
S1130310B11D803523EC9207A105B105B8F3F801AE
S1130320E951FF4F80818F3F39F4CF5FC430F8F239
S113033081E003C080E001C080E0CF911F910F9164
S1130340089561E080E00E9491020E94120380E01F
S11303500E94C30281E00E94BF010E9424030E9404
S11303604F01813031F484ED90E00E9437030E9404
S1130370C20008950E94A1010E944201FDCF813074
S113038039F480E00E94C302882321F082E00895BA
S113039081E0089580E008950F931F93CF93DF9336
S11303A0813039F58901D42FC62F80E00E94CF0215
S11303B0811121C06C2F0E94E60281111EC06D2F95
S11303C00E94E60281111BC00E94DA02811119C049
S11303D06C2F61600E94E602811115C0B8010E9471
S11303E0F202811112C00E940603882381F082E088
S11303F00FC081E00DC082E00BC082E009C082E042
S113040007C082E005C082E003C082E001C080E052
S1130410DF91CF911F910F9108951F93CF93DF9395
S11304208130E9F4122FD42FC62F80E00E94CF022E
S1130430811117C06C2F0E94E602811114C06D2F28
S11304400E94E602811111C0612F0E94E60281110F
S11304500EC00E940603882361F082E00BC081E095
S113046009C082E007C082E005C082E003C082E0E8
S113047001C080E0DF91CF911F910895DF92EF9248
S1130480FF920F931F93CF93DF93D82E162FD42F61
S11304907901C0E00CC097012C0F311D4C2F4D0F7A
S11304A0612F8D2D0E94CC01811105C0CF5FC01733
S11304B090F380E001C082E0DF91CF911F910F9112
S11304C0FF90EF90DF900895DF92EF92FF920F93E9
S11304D01F93CF93DF93D82E162FD42F7901C0E02A
S11304E013C0F701EC0FF11D20814C2F4D0F612F2C
S11304F08D2D0E940D0281110BC00E9472030E9477
S113050072030E947203CF5FC01758F380E001C0EA
S113051082E0DF91CF911F910F91FF90EF90DF90D8
S11305200895843060F5813079F028F08230A9F0A4
S11305308330E1F026C0613021F48FEF8ABB81E083
S113054008951ABA81E00895613021F48FEF87BBD2
S113055081E0089517BA81E00895613021F48FEFA6
S113056084BB81E0089514BA81E00895613021F4D8
S11305708FEF81BB81E0089511BA81E008958FEF78
S1130580089581E00895811108C083E081B987E06E
S113059080B984E086BF80E0089582E008958111E7
S11305A007C084EA86BF06B607FEFDCF80E0089543
S11305B082E00895811108C086B7806A86BF06B6B6
S11305C007FEFDCF80E0089582E00895811108C000
S11305D063B984E886BF06B607FEFDCF80E00895C0
S11305E082E008956115710569F081110DC086B727
S11305F0806886BF06B607FEFDCF83B1FB0180830A
S113060080E0089581E0089582E00895811108C092
S113061084E986BF96B7892F807194FDFBCF089536
S113062082E0089580E487BB85E48DB908958FB98D
S1130630779BFECF8FB108958EB1881F8827881FBE
S1130640813009F080E0089583E389B910BC88E122
S11306508AB986E880BD08955D9BFECF8CB9089564
S11306605F9BFECF8CB19BB190689BB908950F93AB
S11306701F93CF938C01C0E003C00E942C03CF5F73
S1130680F801EC0FF11D80818D3011F08111F5CF4F
S11306908DE00E942C0380E0CF911F910F9108956B
S11306A0EF92FF920F931F93CF938C01C0E07801D8
S11306B0EC0EF11C0E943003F7018083CF5FF80138
S11306C0EC0FF11D319780818D3089F7CF911F9107
S11306D00F91FF90EF9008955F9902C080E0089514
S11306E081E00895CF93DF9300D000D0CDB7DEB77B
S11306F01A82198215C01C820BC01B8203C08B8115
S11307008F5F8B838B818230D0F38C818F5F8C835E
S11307108C81803290F389819A8101969A838983AE
S113072089819A818436910530F30F900F900F9050
S10F07300F90DF91CF910895F894FFCF53
S113073C77726F6E6720636F6D6D616E6400456ECA
S113074C746572207468652050414E2066726F6D1A
S113075C2039206368617261637465727300777207
S113076C6F6E6700456E746572207468652050491D
S113077C4E2066726F6D20666F7572206E756D6299
S113078C65727300436172642069732070726F67C1
S113079C72616D6D656420737563636573736675DF
S11307AC6C6C790050726F6772616D6D696E672045
S10907BC6D6F646500008E
S9030000FC
